:100000000C94C2000C94EA000C94EA000C94EA00F0
:100010000C94EA000C94EA000C94EA000C94EA00B8
:100020000C94EA000C94EA000C94EA000C94EA00A8
:100030000C94EA000C94EA000C94EA000C94EA0098
:100040000C9419080C94EA000C9489080C94630829
:100050000C94EA000C94EA000C94EA000C94EA0078
:100060000C94BB080C94EA0000000000230026005A
:100070002900000006400202CE12ED12E43F59238F
:10008000000200240009C03FC0120008C000004068
:10009000000C3F0C0604DB008F00E6006920FD0029
:1000A0000700FF00EF000012000A4024C80080098A
:1000B0008350BB02F7008F1239000F1279007100D4
:1000C000BD00F60009121E007024380036053621E6
:1000D0003F00F3003F20F320ED0001123E00300C02
:1000E0003628002DEE00090C390000210F000028F1
:1000F0000800000158107820D8008E085808C01455
:100100008E0470100010100A00363000D410501009
:10011000DC00700186045000882078001C00100864
:100120001428002D8E024808490900128924C00CA9
:10013000000000000000240027002A00000000004A
:10014000250028002B000404040404040404020213
:100150000202020203030303030301020408102046
:100160004080010204081020010204081020000051
:100170000008000201000003040700000000000066
:100180000000DA0911241FBECFEFD8E0DEBFCDBFDB
:1001900026E0A6E4B5E001C01D92AA3FB207E1F750
:1001A00015E0A0E0B1E0E6E1F0E302C005900D92B9
:1001B000A634B107D9F710E0C2ECD0E004C0219713
:1001C000FE010E947013C13CD107C9F70E94130AB7
:1001D0000C9409180C940000833081F028F48130CD
:1001E00099F08230A9F008958730A9F08830C9F0DD
:1001F0008430B1F4809180008F7D03C080918000B5
:100200008F7780938000089584B58F7784BD08959B
:1002100084B58F7DFBCF8091B0008F778093B00045
:1002200008958091B0008F7DF9CF1F93CF93DF9316
:10023000282F30E0F901E259FE4F8491F901E65A86
:10024000FE4FD491F901EA5BFE4FC491CC23A9F093
:10025000162F81110E94EC00EC2FF0E0EE0FFF1F33
:10026000E45CFE4FA591B4918FB7F894EC91111115
:1002700008C0D095DE23DC938FBFDF91CF911F9113
:100280000895DE2BF8CFCF93DF9390E0FC01E65A80
:10029000FE4F24918A5B9E4FFC0184918823D1F00C
:1002A00090E0880F991FFC01EE5CFE4FA591B49180
:1002B000FC01E45CFE4FC591D49161110EC09FB763
:1002C000F8948C91E22FE0958E238C932881E22381
:1002D000E8839FBFDF91CF9108958FB7F894EC9199
:1002E000E22BEC938FBFF6CF3FB7F8948091F905DE
:1002F0009091FA05A091FB05B091FC0526B5A89B4D
:1003000005C02F3F19F00196A11DB11D3FBFBA2FA7
:10031000A92F982F8827BC01CD01620F711D811D67
:10032000911D42E0660F771F881F991F4A95D1F7EC
:100330000895AF92BF92CF92DF92EF92FF920F9308
:100340001F93CF93DF936C017B018B01040F151F6B
:10035000EB015E01AE18BF08C017D10759F06991D3
:10036000D601ED91FC910190F081E02DC601099537
:10037000892B79F7C501DF91CF911F910F91FF90E4
:10038000EF90DF90CF90BF90AF900895FC01538D18
:10039000448D252F30E0842F90E0821B930B54175F
:1003A00010F0CF96089501970895FC01918D828DEC
:1003B000981761F0A28DAE0FBF2FB11D5D968C9185
:1003C000928D9F5F9F73928F90E008958FEF9FEFC4
:1003D0000895FC01918D828D981731F0828DE80F80
:1003E000F11D858D90E008958FEF9FEF0895FC013A
:1003F000918D228D892F90E0805C9F4F821B910907
:100400008F7399270895FC01A48DA80FB92FB11DF2
:10041000A35ABF4F2C91848D90E001968F7399273A
:10042000848FA689B7892C93A089B1898C91837018
:1004300080648C93938D848D981306C00288F38911
:10044000E02D80818F7D80830895EF92FF920F933E
:100450001F93CF93DF93EC0181E0888F9B8D8C8D70
:1004600098131AC0E889F989808185FF15C09FB764
:10047000F894EE89FF896083E889F9898081837027
:10048000806480839FBF81E090E0DF91CF911F91D6
:100490000F91FF90EF900895F62E0B8D10E00F5FF7
:1004A0001F4F0F731127E02E8C8D8E110CC00FB6CD
:1004B00007FCFACFE889F989808185FFF5CFCE0165
:1004C0000E940302F1CFEB8DEC0FFD2FF11DE35ADB
:1004D000FF4FF0829FB7F8940B8FEA89FB898081E8
:1004E0008062CFCFCF93DF93EC01888D8823B9F062
:1004F000AA89BB89E889F9898C9185FD03C080812F
:1005000086FD0DC00FB607FCF7CF8C9185FFF2CFAB
:10051000808185FFEDCFCE010E940302E9CFDF91FC
:10052000CF910895E82FEE0FFF0BEE5CFF4F859102
:100530009591A591B49130E020E0662311F020E080
:1005400030E4822B932B08952091CF05260F33277B
:10055000331F21323105ECF420912306FC0190E099
:1005600080E0243069F082E00895A091CF052191C8
:10057000AC0143555A4FA40FB52FB11D2C930196D2
:10058000861798F38091CF05680F6093CF0580E0C0
:10059000089581E008951092230681E08093220659
:1005A0001092FD0561E082E10E94150161E083E1A6
:1005B0000E941501E9EBF0E080818E7F80838081CD
:1005C0008D7F808388E48093B80085E48093BC00AD
:1005D0000895CF93DF9391E09093AC058823B9F011
:1005E000C091B800D091BA008091BC008A7B809302
:1005F000BC0060E082E10E94150160E083E10E949E
:1006000015010E94CB02D093BA00C093B800DF91CD
:10061000CF9108958F929F92AF92BF92CF92DF9227
:10062000EF92FF920F931F93CF93DF93D0914C06DD
:10063000D13208F0D7C0182FC0914B060E94740128
:100640006B017C018091230681116BC082E0809355
:100650002306109322068FEF809321061092200626
:10066000D0931F06ABE2B6E0EFEFF5E080E0D813E1
:1006700091C01092FE058091FE05CC0FC82BC0934F
:10068000FE058091FD05813009F088C01092FD05BE
:100690000E9474016B017C018091FE058093BB0078
:1006A0008091250690912606A0912706B0912806F4
:1006B000892B8A2B8B2BA1F00E94740100912506B7
:1006C0001091260620912706309128066C197D0985
:1006D0008E099F09061717072807390708F442C033
:1006E0008091BC0083FDD8CF85EC8093BC000E9434
:1006F00074016B017C0180912306823009F450C0A3
:10070000809121068F3F09F46FC0809121068032CD
:1007100009F46CC080912106803309F469C084E03B
:1007200026C08091250690912606A0912706B091BB
:100730002806892B8A2B8B2B09F484CF0E94740105
:100740008090250690902606A0902706B090280657
:100750006C197D098E099F0986169706A806B906A9
:1007600008F070CF809124060E94E90285E0109283
:100770002A0610924C0610922906DF91CF911F9104
:100780000F91FF90EF90DF90CF90BF90AF909F9030
:100790008F9008959D9191938F5F69CF85EEA5CF3E
:1007A0008091250690912606A0912706B0912806F3
:1007B000892B8A2B8B2B09F49ECF0E947401009108
:1007C00025061091260620912706309128066C19DF
:1007D0007D098E099F09061717072807390708F0B2
:1007E0008ACFC0CF81E0C3CF80E0C1CF82E0BFCF4E
:1007F00083E0BDCF089508950895E091AB05809101
:10080000AA05E81730F4F0E0E657FA4F808190E04F
:1008100008958FEF9FEF08959091AB058091AA0501
:100820002FEF3FEF981748F4E92FF0E0E657FA4F23
:10083000208130E09F5F9093AB05C90108958091BE
:10084000AA059091AB05891B990B0895CF92DF9271
:10085000EF92FF920F931F93CF93DF937C01CB0115
:100860008A0120912906222389F0EB016B01C40E35
:10087000D51ECC15DD0569F06991D701ED91FC918C
:100880000190F081E02DC7010995F3CF642F0E94FC
:10089000A402C801DF91CF911F910F91FF90EF90BB
:1008A000DF90CF900895CF93DF931F92CDB7DEB73F
:1008B0006983209129062223F9F020914C062032E9
:1008C00058F021E030E0FC013383228390E080E0A7
:1008D0000F90DF91CF91089580912A06E82FF0E0E4
:1008E000E55DF94F998190838F5F80932A0680930D
:1008F0004C0681E090E0ECCF61E0CE0101960E94D1
:10090000A402F7CF682F8AEE96E00C945304CF939D
:10091000DF93FC01D42FC52F962F96959695808155
:10092000890F91E09093290680934B0610922A0636
:1009300010924C066370862F90E0880F991F0E94DA
:1009400082046D2F8AEE96E00E9453046C2F8AEE8B
:1009500096E00E94530481E0DF91CF910C940A034A
:10096000CF92DF92FF920F931F93CF93DF938C016F
:100970006B01C0E0FF24F394F8018181C81708F0EF
:1009800049C080818C0FF092290680934B0610920B
:100990002A0610924C0681E290E00E94820480E0D8
:1009A0000E940A03F80180818C0FF092290680933F
:1009B0004B0610922A0610924C06F601EC0FF11D20
:1009C000808190E080529F4F0E94820480E00E94CC
:1009D0000A03F80180818C0FF092290680934B0660
:1009E00010922A0610924C0681E890E00E94820440
:1009F00081E00E940A03D0E0F8018281D81740F418
:100A000050E040E06D2FC8010E948704DF5FF4CF03
:100A1000CF5FB2CFDF91CF911F910F91FF90DF9009
:100A2000CF90089590E080E00895FC0101900020AF
:100A3000E9F73197AF01481B590BBC018DE496E0F3
:100A40000C9499018F929F92AF92BF920F931F9334
:100A5000CF93DF93CDB7DEB7A1970FB6F894DEBF83
:100A60000FBECDBF19A2423008F44AE08E010F5DDF
:100A70001F4F842E912CB12CA12CA50194010E9412
:100A80003A13E62FB901CA01EA30F4F4E05DD80167
:100A9000EE938D01232B242B252B79F790E080E01A
:100AA000109719F0CD010E941505A1960FB6F89484
:100AB000DEBF0FBECDBFDF91CF911F910F91BF90D1
:100AC000AF909F908F900895E95CE1CFCF93DF9333
:100AD0000E941505EC0183E591E00E9415058C0F3D
:100AE0009D1FDF91CF9108950C941505CF93DF934F
:100AF000FC0144815581608171818DE496E00E9402
:100B00009901EC0183E591E00E9415058C0F9D1F72
:100B1000DF91CF910895CF92DF92EF92FF92CF9322
:100B2000DF936C01990FEE08FF08F7FE19C06DE224
:100B30008DE496E00E942502EC0166277727CB0121
:100B40006C197D098E099F094AE00E9422058C0FCD
:100B50009D1FDF91CF91FF90EF90DF90CF90089590
:100B60004AE0C701B601DF91CF91FF90EF90DF908F
:100B7000CF900C9422050F931F93CF93DF93EC013A
:100B800088819981009759F02A813B812617370780
:100B900030F081E0DF91CF911F910F9108958B018B
:100BA0006F5F7F4F0E949B14009759F09983888351
:100BB0001B830A832C813D81232B59F7FC01108272
:100BC000E8CF80E0E7CFEF92FF920F931F93CF9390
:100BD000DF936115710541F480E0DF91CF911F91A2
:100BE0000F91FF90EF90089541155105B1F07B01F1
:100BF000EC010C811D81040F151FB8010E94BB057B
:100C0000882351F3288139818C819D81B701820F1E
:100C1000931F0E9461151D830C8381E0DECFCF936B
:100C2000DF93EC0188819981009711F00E941214E2
:100C3000198218821D821C821B821A82DF91CF9139
:100C40000895CF93DF93EC01FB0101900020E9F7B9
:100C50003197AF01461B570B0E94E305811103C07A
:100C6000CE010E940F06CE01DF91CF910895CF9360
:100C7000DF93EC01FB0144815581608171810E9409
:100C8000E305811103C0CE010E940F06CE01DF9162
:100C9000CF910895EF92FF920F931F93CF93DF931D
:100CA000EC017B018A01BA010E94BB0581110BC0D6
:100CB000CE010E940F06CE01DF91CF911F910F91BF
:100CC000FF90EF9008951D830C83B701888199816F
:100CD0000E946115F0CFEF92FF920F931F93CF9375
:100CE000DF93CDB7DEB7A1970FB6F894DEBF0FBE86
:100CF000CDBF8C01CB01BA01F801118210821382A1
:100D00001282158214822AE0AE014F5F5F4F7A0192
:100D10000E94A312F70101900020E9F73197AF017B
:100D20004E195F09B701C8010E944A06A1960FB685
:100D3000F894DEBF0FBECDBFDF91CF911F910F9111
:100D4000FF90EF900895EF92FF920F931F93CF9330
:100D5000DF93CDB7DEB762970FB6F894DEBF0FBE54
:100D6000CDBF8C01CB01F801118210821382128257
:100D7000158214824AE09E012F5F3F4F7901B9012D
:100D80000E949812F70101900020E9F73197AF0116
:100D90004E195F09B701C8010E944A0662960FB654
:100DA000F894DEBF0FBECDBFDF91CF911F910F91A1
:100DB000FF90EF900895FC0111821082138212823D
:100DC00015821482FB0101900020E9F73197AF01F1
:100DD000461B570B0C944A06FC01808191810097B9
:100DE00011F00C9412140895CF92DF92EF92FF92BB
:100DF000CF93DF93CDB7DEB72C970FB6F894DEBF55
:100E00000FBECDBF86E591E00E94660582E791E0C6
:100E10000E9466058CE791E00E94660560910C01D6
:100E200070910D0180910E0190910F0128EEC22E5C
:100E300023E0D22EE12CF12CA70196010E943A1357
:100E4000BA01A901CE0107960E946B0662EB71E020
:100E5000CE0101960E94DB06BE01695F7F4FCE0185
:100E600001960E94370665EE71E00E9421060E94FD
:100E70007605CE0101960E94EC06CE0107960E94EF
:100E8000EC06609100017091010180910201909146
:100E90000301A70196010E943A13BA01A901CE01EC
:100EA00007960E946B0669EE71E0CE0101960E94E2
:100EB000DB06BE01695F7F4FCE0101960E943706B7
:100EC00065EE71E00E9421060E947605CE01019632
:100ED0000E94EC06CE0107960E94EC066091080184
:100EE0007091090180910A0190910B01A70196016F
:100EF0000E943A13BA01A901CE0107960E946B061F
:100F00006AE172E0CE0101960E94DB06BE01695FD4
:100F10007F4FCE0101960E94370665EE71E00E9478
:100F200021060E947605CE0101960E94EC06CE01B4
:100F300007960E94EC066091040170910501809172
:100F4000060190910701A70196010E943A13BA0188
:100F5000A901CE0107960E946B066DE472E0CE01F6
:100F600001960E94DB06BE01695F7F4FCE010196AC
:100F70000E94370665EE71E00E9421060E94760508
:100F8000CE0101960E94EC06CE0107960E94EC0667
:100F900080E892E00E94660589E992E00E94660579
:100FA0008BEA92E00E9466052C960FB6F894DEBF9D
:100FB0000FBECDBFDF91CF91FF90EF90DF90CF902C
:100FC000089585ED8093BC008091250690912606BA
:100FD000A0912706B09128060796A11DB11D23E018
:100FE000B695A795979587952A95D1F72091BC003E
:100FF00024FD03C0109223060895409125065091C8
:1010000026066091270670912806452B462B472B14
:1010100069F30097A105B10541F02AE22A95F1F79D
:1010200000C00197A109B109E1CF809124060C9479
:10103000E9021F920F920FB60F9211242F933F9344
:101040008F939F93AF93BF938091F5059091F60591
:10105000A091F705B091F8053091F40523E0230F36
:101060002D3758F50196A11DB11D2093F4058093ED
:10107000F5059093F605A093F705B093F8058091D8
:10108000F9059091FA05A091FB05B091FC05019638
:10109000A11DB11D8093F9059093FA05A093FB055E
:1010A000B093FC05BF91AF919F918F913F912F918C
:1010B0000F900FBE0F901F90189526E8230F0296F1
:1010C000A11DB11DD2CF1F920F920FB60F92112406
:1010D0002F933F934F935F936F937F938F939F9340
:1010E000AF93BF93EF93FF938DE496E00E940302CA
:1010F000FF91EF91BF91AF919F918F917F916F91F0
:101100005F914F913F912F910F900FBE0F901F90C5
:1011100018951F920F920FB60F9211242F938F9351
:101120009F93EF93FF93E0915D06F0915E068081BF
:10113000E0916306F091640682FD1BC0908180916E
:1011400066068F5F8F7320916706821741F0E091EA
:101150006606F0E0E35BF94F958F80936606FF919A
:10116000EF919F918F912F910F900FBE0F901F9035
:1011700018958081F4CF1F920F920FB60F92112411
:101180002F933F934F935F936F937F938F939F938F
:10119000AF93BF93EF93FF938091B900887F803620
:1011A00009F44AC0F0F5883209F4A7C018F5803177
:1011B00009F49BC0B8F4882309F4F9C0883009F415
:1011C00094C0FF91EF91BF91AF919F918F917F91CB
:1011D0006F915F914F913F912F910F900FBE0F90A4
:1011E0001F901895883109F488C0803251F7809398
:1011F000210614C0803409F49DC040F48033B9F353
:101200008833F9F68093210685ECB0C0803509F467
:1012100085C0883509F496C0883499F60E94E107A4
:10122000D0CF883909F48CC038F5883729F050F4CC
:10123000883611F0803729F683E0809323061092D8
:10124000F30557C0883809F47BC0803919F080381D
:1012500009F0B7CF8091F305803208F071C0E091BA
:10126000F30581E08E0F8093F3058091BB00F0E0E1
:10127000ED52FA4F80833DC0803B39F0E0F4803A74
:1012800009F479C0883A09F09CCF84E08093230662
:101290001092D0051092CF05E091CD05F091CE05CA
:1012A00009958091CF0581110FC081E08093CF0512
:1012B0001092AD0509C0803C09F4A6CF883C09F422
:1012C000A3CF883B09F07DCFE091D00581E08E0F60
:1012D0008093D005F0E0E355FA4F80818093BB0006
:1012E0009091D0058091CF0529C08091FE05809313
:1012F000BB0085EC8093BC0064CF90912006809168
:101300001F06981758F5E091200681E08E0F809314
:101310002006F0E0E150FA4F8081E9CFE09120060D
:1013200081E08E0F809320068091BB00F0E0E150B9
:10133000FA4F80839091200680911F069817C8F27B
:1013400085E8D8CFE091200681E08E0F80932006BB
:101350008091BB00F0E0E150FA4F8083809122063B
:1013600081115CCF81E08093FD0584EA8093BC000D
:101370001092230626CF85EC8093BC0010922306A2
:101380008091F305803230F4E091F305F0E0ED5206
:10139000FA4F10826091F30570E0E091D105F09171
:1013A000D20583ED95E009951092F3050ACF1092CE
:1013B000210634CFEDE4F6E01382128288EE93E04A
:1013C000A0E0B0E084839583A683B78323E331E074
:1013D0003183208325EC30E03587248724EC30E00E
:1013E0003787268720EC30E0318B208B21EC30E0F2
:1013F000338B228B22EC30E0358B248B26EC30E0D3
:10140000378B268B118E128E138E148EEAEEF6E039
:101410001382128284839583A683B78385E491E047
:10142000918380830895CF93DF93CDB7DEB7AE97D6
:101430000FB6F894DEBF0FBECDBF789484B582603E
:1014400084BD84B5816084BD85B5826085BD85B568
:10145000816085BD80916E00816080936E001092E6
:101460008100809181008260809381008091810061
:1014700081608093810080918000816080938000F2
:101480008091B10084608093B1008091B000816050
:101490008093B00080917A00846080937A0080917C
:1014A0007A00826080937A0080917A0081608093D4
:1014B0007A0080917A00806880937A001092C1004F
:1014C000E0915D06F0915E0682E08083E09159062E
:1014D000F0915A061082E0915B06F0915C0680E183
:1014E000808310926506E0916106F091620686E0C5
:1014F0008083E0915F06F091600680818061808347
:10150000E0915F06F0916006808188608083E091C1
:101510005F06F0916006808180688083E0915F06BD
:10152000F091600680818F7D80831092AB051092D0
:10153000AA0510922A0610924C060E94CB028AEF4E
:1015400093E09093CE058093CD058BEF93E090933D
:10155000D2058093D10560E086E00E94430161E0FE
:101560008DE00E94430161E087E00E94430160E05A
:1015700087E00E9415011092600510925F0510929D
:101580006205109261051092630510926405109235
:101590006505109266051092670510926805109215
:1015A000690510926A0510926B0510926C051092F5
:1015B0006D0510926E0510927F0510927E051092B7
:1015C0008005109281051092820510928305109279
:1015D0008405109285051092860510928705109259
:1015E000880510928905EFE6F5E08EE795E0119207
:1015F0008E179F07E1F71092530510925205109233
:1016000054051092550510925605109257051092E8
:1016100058051092590510925A0510925B051092C8
:101620005C051092460510924705109248051092ED
:10163000490510924A0510924B0510924C051092E4
:101640004D0510924E0510924F05109250051092C4
:1016500051050E94F40689EC92E00E94660582EF33
:1016600092E00E94740586E090E00E948B0583E57D
:1016700091E00E94150588E193E00E94740587E0DF
:1016800090E00E948B058AE393E00E94740583E05A
:1016900090E00E948B0582E493E00E94740588EE3E
:1016A00093E00E948B0582E593E00E94660510E0BE
:1016B00000E070E7F72EEE24E394E0922906F09222
:1016C0004B0610922A0610924C0681E00E940A03F3
:1016D000811102C00F5F1F4FF39428E7F212EDCF84
:1016E000023009F4D1C0033009F4F3C00130E1F451
:1016F00089E0898387E190E00E94761320E7DC018E
:101700002C9321E011962C93119724E012962C93A0
:10171000129754961C9290935E0580935D05BE01CE
:101720006F5F7F4F0E94B004809118019091190162
:101730009A838983FE01339682E1DF011D928A95A7
:10174000E9F700E01EA21DA22FEF3FEFA9012FA392
:1017500038A749A75AA71BA61CA61DA61EA658EE69
:10176000C52E53E0D52EE12CF12CAE014F5F5F4F1B
:101770001A010E9474014B015C018FB7F89420910B
:10178000F5053091F6054091F7055091F80529A32C
:101790003AA34BA35CA38FBFE4E7F1E08491E0E6BA
:1017A000F1E07490ECE4F1E01491112379F08111EF
:1017B0000E94EC00E12FF0E0EE0FFF1FE859FF4F11
:1017C000A591B4918C91782211E009F410E08DE498
:1017D00096E00E94F701892BA1F08DE496E00E942B
:1017E000D501682F843409F4D9C10CF0BEC081340E
:1017F00009F48FC10CF0A6C08FEC860F893008F475
:1018000027C180916B0590916C05A0916D05B091F9
:101810006E05A5019401281B390B4A0B5B0BDA01FD
:10182000C90184369105A105B10508F4C8C28092AA
:101830006B0590926C05A0926D05B0926E0580913B
:101840007E0590917F05FC01E15AFA4F1170108BD3
:1018500020911001309111010196B9010E942613C7
:1018600090937F0580937E05EFE5F5E090E080E0C2
:10187000AF014F555540421753070CF07FC24089C6
:10188000411101963196F4CF8FE089838A8387E1F5
:1018900090E00E9476138C0180E7F801808382E05B
:1018A000818388E08283148A10935E0500935D052E
:1018B00087E190E00E947613FC0181E7808381E05C
:1018C000818384E08283148ABE016F5F7F4FC801E9
:1018D00029CF80912C0190912D01A0912E01898317
:1018E0009A83AB8387E190E00E9476138C0180E7B6
:1018F000D8018C9383E011968C9311978CE012960B
:101900008C93129754961C9210935E0500935D057C
:1019100087E190E00E947613FC0181E78083EE244A
:10192000E394E18264E0F62EF282148A87E190E08B
:101930000E947613FC0182E78083E182F282C3CFAA
:1019400000E017CF823409F4F1C0833409F059CF95
:10195000609108017091090180910A0190910B0139
:1019600068577C4E8F4F9F4F04C1833609F4EBC0FC
:1019700084F5813609F495C0823609F042CF609132
:101980000001709101018091020190910301645660
:10199000710981099109643671058105910520F469
:1019A00064E670E080E090E06093000170930101D4
:1019B0008093020190930301A70196010E943A13BC
:1019C000BA01A901CE014B960E946B066AE973E049
:1019D00092C0883609F4CFC1833709F4ECC084364D
:1019E00009F00FCF6091040170910501809106010B
:1019F00090910701409008015090090160900A0100
:101A000070900B0130E1430E37E2531E611C711CD4
:101A1000605177428109910964157505860597051E
:101A200010F4C301B2016093040170930501809327
:101A3000060190930701A70196010E943A13BA018B
:101A4000A901CE014B960E946B066CEB73E053C06C
:101A5000062E000C770B605371097093110160938F
:101A60001001CE014B960E94A3066BE573E0CE01F8
:101A700045960E94DB06BE01655E7F4FCE0145960E
:101A80000E94370663E773E00E9421060E947605F4
:101A9000CE0145960E94EC06CE014B960E94EC06C4
:101AA000B0CE60910C0170910D0180910E0190916A
:101AB0000F01685E734081099109683EF3E07F077A
:101AC0008105910520F468EE73E080E090E060937A
:101AD0000C0170930D0180930E0190930F01A701EB
:101AE00096010E943A13BA01A901CE014B960E94B9
:101AF0006B0668E873E0CE0145960E94DB06BE01E6
:101B0000655E7F4FCE0145960E9437066CEF74E00C
:101B1000BBCF60910C0170910D0180910E019091ED
:101B20000F0168517C4F8F4F9F4FD1CF60910001C3
:101B30007091010180910201909103016C597F4FD6
:101B40008F4F9F4F31CF60910801709109018091B3
:101B50000A0190910B016858734181099109603124
:101B600027E272078105910520F460E177E280E0C9
:101B700090E0609308017093090180930A019093AB
:101B80000B01A70196010E943A13BA01A901CE01E7
:101B90004B960E946B066AEA73E0ADCF6091040138
:101BA000709105018091060190910701605F784D69
:101BB0008F4F9F4F38CF8EEC93E00E946605609167
:101BC000100170911101CE014B960E94A30668EEA0
:101BD00073E0CE0145960E94DB06BE01655E7F4F35
:101BE000CE0145960E94370663E773E00E94210606
:101BF0000E947605CE0145960E94EC06CE014B96DA
:101C00000E94EC0660910C0170910D0180910E0113
:101C100090910F01A70196010E943A13BA01A90100
:101C2000CE014B960E946B0668E873E0CE014596A4
:101C30000E94DB06BE01655E7F4FCE0145960E9485
:101C400037066CEF74E00E9421060E947605CE01F3
:101C500045960E94EC06CE014B960E94EC066091E0
:101C60000001709101018091020190910301A7018F
:101C700096010E943A13BA01A901CE014B960E9427
:101C80006B066AE973E0CE0145960E94DB06BE0151
:101C9000655E7F4FCE0145960E9437066CEF74E07B
:101CA0000E9421060E947605CE0145960E94EC0610
:101CB000CE014B960E94EC066091080170910901DB
:101CC00080910A0190910B01A70196010E943A139D
:101CD000BA01A901CE014B960E946B066AEA73E035
:101CE000CE0145960E94DB06BE01655E7F4FCE01A8
:101CF00045960E9437066CEF74E00E9421060E9410
:101D00007605CE0145960E94EC06CE014B960E94C8
:101D1000EC0660910401709105018091060190919B
:101D20000701A70196010E943A13BA01A901CE0149
:101D30004B960E946B066CEB73E0CE0145960E94B9
:101D4000DB06BE01655E7F4FCE0145960E943706D9
:101D50006CEF74E00E9421060E947605CE01459644
:101D60000E94EC06CE014B960E94EC0680EB92E0BE
:101D70000E94660546CD0E94F40643CDB90137FFA7
:101D800002C06F5F7F4F7595679511E068177907FF
:101D90000CF010E020915F053091600530936205F2
:101DA000209361052230310509F46DC050F42115EE
:101DB000310589F121303105C1F11093800510E022
:101DC00016C12330310509F471C024303105A9F75B
:101DD000681779073CF18091820590918305A09165
:101DE0008405B0918505B501A401481B590B6A0B08
:101DF0007B0B8091000190910101A0910201B091B3
:101E00000301481759076A077B07B8F2109260056B
:101E100010925F05D2CF681779077CF68091800514
:101E20008111CBCF81E090E034C06817790774F757
:101E30008091820590918305A0918405B0918505DC
:101E4000B501A401481B590B6A0B7B0B80910C0157
:101E500090910D01A0910E01B0910F014817590703
:101E60006A077B0708F4A9CF82E090E090936005B1
:101E700080935F058092670590926805A09269053E
:101E8000B0926A059ACF681779070CF496CF83E071
:101E900090E09093600580935F0580928205909218
:101EA0008305A0928405B092850587CF68177907CE
:101EB0000CF443C28091820590918305A091840522
:101EC000B0918505B501A401481B590B6A0B7B0B2A
:101ED00080910C0190910D01A0910E01B0910F0124
:101EE000481759076A077B0708F467CF84E090E03A
:101EF0009093600580935F058091670590916805D8
:101F0000A0916905B0916A0524013501481A590A62
:101F10006A0A7B0A89EF93E00E9474054AE0C301D4
:101F2000B2010E94220580E194E00E947405C30181
:101F3000B201A70196010E943A13CA01B9014AE011
:101F40000E94220586E194E00E94740560910801D8
:101F50007091090180910A0190910B01A7019601EE
:101F60000E943A13CA01B9014AE00E9422058BE29D
:101F700094E00E94740560910401709105018091C4
:101F8000060190910701A70196010E943A13CA0128
:101F9000B9014AE00E9422058DE294E00E94740596
:101FA0008091080190910901A0910A01B0910B0163
:101FB000481659066A067B0608F4B6C180910401EA
:101FC00090910501A0910601B09107018415950536
:101FD000A605B70508F4A8C11092600510925F0528
:101FE0001092800584E394E00E94660511E0609100
:101FF00080058DE00E94150180915405882369F1C8
:102000008091550590915605A0915705B0915805BE
:1020100029A13AA14BA15CA1281B390B4A0B5B0BF0
:10202000DA01C901803D9740A105B105B0F01092D9
:10203000540560E087E00E9415018EE594E00E945F
:1020400066058EE794E00E94740587E090E00E94A8
:102050008B0583E894E00E946605112309F427C1EB
:102060008091670590916805A0916905B0916A0516
:10207000881A990AAA0ABB0A8091520590915305C1
:10208000892B09F14091590550915A0560915B05E2
:1020900070915C0589A19AA1ABA1BCA1805293402B
:1020A000A109B109841B950BA60BB70B813991408F
:1020B000A105B10540F010925305109252058CE82D
:1020C00094E00E9466058091520590915305FC01B1
:1020D000EE0FFF1FEE0FFF1FEA5BFA4F29A13AA197
:1020E0004BA15CA12083318342835383019690935B
:1020F0005305809352052093590530935A05409318
:102100005B0550935C058EEA94E00E947405809113
:102110005205909153050E948B058BEB94E00E9431
:10212000740583E090E00E948B0580EC94E00E94AF
:102130006605809152059091530503977CF181E0EB
:102140008093540589A19AA1ABA1BCA180935505A8
:1021500090935605A0935705B093580510925305D8
:102160001092520561E087E00E9415018DEC94E029
:102170000E9466058EE794E00E94740587E090E077
:102180000E948B058CEE94E00E94740580ED97E030
:102190000E948B058BEF94E00E946605ADA1BEA165
:1021A0001196BEA3ADA35A979CF08FEF94E00E94C6
:1021B0006605E1E0F0E0FEA3EDA32FEF3FEFA901FC
:1021C0002FA338A749A75AA71BA61CA61DA61EA663
:1021D0008FA198A5A9A5BAA588169906AA06BB0637
:1021E00020F48FA298A6A9A6BAA62BA53CA54DA51A
:1021F0005EA5281539054A055B0520F48BA69CA62B
:10220000ADA6BEA6C501B401A70196010E943A136E
:10221000722E832E6FA178A589A59AA5A701960194
:102220000E943A13922EA32E6BA57CA58DA59EA588
:10223000A70196010E943A13B22E132F3F932F93BA
:10224000AF929F928F927F9280E195E09F938F93C0
:102250003F922F920E9468158AE195E00E947405D2
:10226000872D982D0E948B0588E395E00E947405C8
:10227000892D9A2D0E948B0588E395E00E947405B4
:102280008B2D912F0E948B058BE395E00E947405A6
:1022900080915F05909160050E948B058CE594E02C
:1022A0000E9466050FB6F894DEBF0FBECDBF8FB794
:1022B000F8944090F5055090F6056090F705709001
:1022C000F8058FBFA0905D05B0905E05011157C065
:1022D000D50118963C922E92179752961C921E92F8
:1022E000519784E690E01A969C938E9319971C96CA
:1022F0009C938E931B97F10101900020E9F7319791
:102300009F012219330990E080E0F1018217130642
:1023100009F0D4F440814423B9F041814E3209F4EC
:10232000319631960196F2CF1092600510925F05BA
:1023300081E494E00E94660540CD82E090E09093B5
:10234000600580935F0539CDF501228130E0AC0155
:10235000421B530B4F5F5F4F14161506BCF5548399
:102360004383F50116821582158616861786108A14
:1023700041E0281739070CF440E0F501438BF501E3
:1023800085859685A785B089481659066A067B0615
:1023900008F4C9C0878090848389882309F440C0E9
:1023A00010E0D50112968C91181708F093C0F40133
:1023B0008081811110C060E080E20E949202AC0135
:1023C000612FC5010E9487041F5FEBCF41E050E001
:1023D00054834383C6CF91819E32A1F480327CF036
:1023E00061E00E949202AC01612FC5010E94870446
:1023F000BFEF8B1A9B0AEFEF8E1A9E0AE5CF8FEF85
:102400009FEFF1CF80324CF060E00E949202AC016D
:10241000612FC5010E948704EECF8FEF9FEFF7CFAA
:1024200081899289880E991E10E0F5018281181722
:1024300058F5D4018C91882339F111969C919E32E4
:10244000A9F4803284F061E00E949202AC01612F15
:10245000C5010E948704BFEF8B1A9B0AEFEF8E1A0B
:102460009E0A1F5FE2CF8FEF9FEFF0CF80324CF0DC
:1024700060E00E949202AC01612FC5010E948704B6
:10248000EDCF8FEF9FEFF7CFD50113968D919C91F4
:102490001497019715962D913C9116972817390797
:1024A000CCF451968D919C9152979C012F5F3F4F98
:1024B00052963C932E9351971796ED91FC91189755
:1024C000E20FF31F20812E3229F4029652969C933C
:1024D0008E935197F50185819681238134810097F0
:1024E00031F0A9014150510984179507F1F4D50144
:1024F00019964D915C91052E000C660B770B440EDE
:10250000551E661E771ED5011D964D925D926D92E9
:102510007C925097821793070CF012CA0196169678
:102520009C938E93159701E024C943855485E3CF8E
:10253000BB274A3031F4992322F4BDE2909581956E
:102540009F4F0C94C612BB27FA01A62F6217710584
:1025500081059105330B30FB66F0AA27660F771FC4
:10256000881F991FAA1FA21710F0A21B639538504D
:10257000A9F7A05DAA3308F0A95DA19336F7B111C0
:10258000B1931082CA010C94DF12BB27FB015527BF
:10259000AA27880F991FAA1FA41710F0A41B8395C0
:1025A0005051B9F7A05DAA3308F0A95DA193009737
:1025B00079F7B111B1931192CB010C94DF12DC01C8
:1025C000FC01672F71917723E1F7329704C07C916A
:1025D0006D9370836291AE17BF07C8F308952F9271
:1025E0003F924F925F926F927F928F929F92AF92A3
:1025F000BF92CF92DF92EF92FF920F931F93CF93F0
:10260000DF93CDB7DEB7CA1BDB0B0FB6F894DEBF86
:102610000FBECDBF09942A88398848885F846E84AC
:102620007D848C849B84AA84B984C884DF80EE80F6
:10263000FD800C811B81AA81B981CE0FD11D0FB6FF
:10264000F894DEBF0FBECDBFED01089597FB072EB6
:1026500016F4009407D077FD09D00E945C1307FCA4
:1026600005D03EF4909581959F4F089570956195A2
:102670007F4F0895A1E21A2EAA1BBB1BFD010DC0BE
:10268000AA1FBB1FEE1FFF1FA217B307E407F50722
:1026900020F0A21BB30BE40BF50B661F771F881FFE
:1026A000991F1A9469F760957095809590959B0194
:1026B000AC01BD01CF010895AA1BBB1B51E107C0AE
:1026C000AA1FBB1FA617B70710F0A61BB70B881FC2
:1026D000991F5A95A9F780959095BC01CD01089551
:1026E000EE0FFF1F0590F491E02D09940F931F93B7
:1026F000CF93DF938230910510F482E090E0E09177
:10270000F806F091F90630E020E0B0E0A0E0309764
:1027100099F42115310509F44AC0281B390B2430DE
:102720003105D8F58A819B816115710589F1FB011D
:1027300093838283FE0111C0408151810281138104
:1027400048175907E0F04817590799F4109761F0B6
:1027500012960C93129713961C933296CF01DF9129
:10276000CF911F910F9108950093F8061093F906E9
:10277000F4CF2115310551F04217530738F0A90164
:10278000DB019A01BD01DF01F801C1CFEF01F9CFF3
:102790009093F9068093F806CDCFFE01E20FF31F68
:1027A000819391932250310939832883D7CF209187
:1027B000F6063091F706232B41F420911401309155
:1027C00015013093F7062093F606209112013091FF
:1027D00013012115310541F42DB73EB74091160183
:1027E00050911701241B350BE091F606F091F70686
:1027F000E217F307A0F42E1B3F0B2817390778F0D8
:10280000AC014E5F5F4F2417350748F04E0F5F1F36
:102810005093F7064093F606819391939FCFF0E093
:10282000E0E09CCFCF93DF930097E9F0FC01329773
:1028300013821282A091F806B091F906ED0130E002
:1028400020E01097A1F420813181820F931F209105
:10285000F6063091F7062817390709F061C0F093A2
:10286000F706E093F606DF91CF910895EA01CE17BF
:10287000DF07E8F54A815B819E0141155105B1F7FB
:10288000E901FB83EA8349915991C40FD51FEC17E5
:10289000FD0761F4808191810296840F951FE90103
:1028A00099838883828193819B838A83F0E0E0E02F
:1028B00012968D919C9113970097B9F52D913C91AB
:1028C0001197CD010296820F931F2091F606309149
:1028D000F7062817390739F6309751F51092F9069F
:1028E0001092F806B093F706A093F606BCCFD383F8
:1028F000C28340815181840F951FC817D90761F4A5
:102900004E5F5F4F88819981480F591F51834083E3
:102910008A819B81938382832115310509F0B0CF91
:10292000F093F906E093F8069ECFFD01DC01C0CFDD
:1029300013821282D7CFB0E0A0E0E1EAF4E10C9478
:10294000F1128C01009751F4CB010E9476138C0197
:10295000C801CDB7DEB7E0E10C940D13FC01E60F22
:10296000F71F9C0122503109E217F30708F49DC0BC
:10297000D901CD91DC911197C617D70798F0C530D2
:10298000D10530F3CE0104978617970708F3C61BCD
:10299000D70B2297C193D1936D937C93CF010E9463
:1029A0001214D6CF5B01AC1ABD0A4C018C0E9D1ED1
:1029B000A091F806B091F906512C412CF12CE12C94
:1029C000109731F58091F6069091F70688159905D4
:1029D00009F05CC04616570608F058C080911201F5
:1029E00090911301009741F48DB79EB74091160165
:1029F00050911701841B950BE817F90708F055C093
:102A0000F093F706E093F606F90171836083A0CF97
:102A10008D919C91119712966C90129713967C90C1
:102A20001397A815B90559F56C0142E0C40ED11CE5
:102A3000CA14DB0420F1AC014A195B09DA011296D1
:102A4000159780F06282738251834083D9016D9320
:102A50007C93E114F10471F0D7011396FC93EE938B
:102A6000129776CF22968C0F9D1FF9019183808358
:102A7000F301EFCFF093F906E093F80669CF48161B
:102A8000590608F42C017D01D3019ACFCB010E9495
:102A900076137C01009749F0AE01B8010E945815E9
:102AA000C8010E941214870153CF10E000E050CFFC
:102AB000FB01DC0102C001900D9241505040D8F75B
:102AC0000895FB01DC0101900D920020E1F70895CB
:102AD000AEE0B0E0EEE6F5E10C94FD120D891E8942
:102AE00086E08C831A8309838FEF9FE79E838D8313
:102AF000AE01475E5F4F6F89788DCE0101960E94CF
:102B00008B152F813885020F131FF80110822E9626
:102B1000E4E00C941913ABE0B0E0E1E9F5E10C94CA
:102B2000EF127C013B018A01FC011782168283812E
:102B300081FFC8C1CE0101965C01F7019381F301C9
:102B400093FD859193FF81913F01882309F453C13F
:102B5000853239F493FD859193FF81913F01853250
:102B600029F4B70190E00E947B17E7CF912C212C2C
:102B7000312CFFE1F31538F08B3211F190F48032F3
:102B800009F1833229F137FC3CC020ED280F2A30AF
:102B900050F536FE20C08AE0989E200D1124922E1A
:102BA00006C08D3291F0803371F7689430F8F301EC
:102BB00093FD859193FF81913F018111DACF21C06F
:102BC000689431F8689432F8F2CF689433F8EFCF14
:102BD000689434F8ECCFEAE02E9E200D1124222ECA
:102BE000689435F8E4CF8E3229F436FC04C1689439
:102BF00036F8DDCF8C3619F4689437F8D8CF88369C
:102C0000B1F2982F9F7D95549330E0F08336A1F177
:102C10008337C1F1833509F063C02801F2E04F0E1C
:102C2000511CF801C080D180692D70E036FC02C0D3
:102C30006FEF7FEFC6010E9465174C01689437F86B
:102C400082010AC00C5F1F4FFFE3F983882483943D
:102C5000912C6501E89437F833FE2DC0522C811475
:102C6000910471F5552009F468CFB70180E290E036
:102C70000E947B175A94F6CFF801808189830E5FFA
:102C80001F4FE4CF2801F2E04F0E511CF801C08025
:102C9000D180692D70E036FC02C06FEF7FEFC60176
:102CA0000E9470174C018201D5CFB70180E290E0FD
:102CB0000E947B172A942814190409F0B0F7CECF8C
:102CC000F60137FC859137FE81916F01B70190E0E5
:102CD0000E947B1751105A94F1E08F1A9108BFCFD0
:102CE000843619F0893609F077C0F80137FE6BC0D9
:102CF00060817181828193810C5F1F4FF32DFF767C
:102D00003F2E97FF09C090958095709561957F4FF4
:102D10008F4F9F4F689437F82AE030E0A5010E945A
:102D2000AB17C82ECA188C2C432C36FE0CC0E89466
:102D300040F8C91440F434FE05C032FC03C0F32D42
:102D4000FE7E4F2E892C44FE95C0FE01EC0DF11D38
:102D50008081803309F087C0242D297E422E842D66
:102D60008870582E43FC95C040FE8FC09C2C821466
:102D700018F42C0C922C981844FE91C0B70180E3F3
:102D800090E00E947B1742FE09C088E790E041FE78
:102D900002C088E590E0B7010E947B17C91408F4CF
:102DA0008AC0CA94D12C9FEFC91AD90ACA0CDB1C5D
:102DB000F60182916F01B70190E00E947B17AC147D
:102DC000BD04B1F74FCF60817181072E000C880BD5
:102DD000990B0E5F1F4F92CFD32CE894D4F82AE0C2
:102DE00030E0853739F1232D297FD22E8F3601F13E
:102DF00048F48835A9F0F701868197812B96E2E1A6
:102E00000C940B13803749F08837A9F7D4FE02C021
:102E10006894D2F820E130E00DC06894D4F8F6CF81
:102E200034FE03C0822F8660D82E20E132E002C03B
:102E300028E030E0F801D7FE0FC060817181828107
:102E400093810C5F1F4FA5010E94AB17C82ECA18B3
:102E50003D2CE89437F867CF6081718190E080E085
:102E60000E5F1F4FF0CF42FC02C0839478CF839453
:102E7000839475CF842D867809F471CFF6CFB7018E
:102E800080E290E00E947B1783948214C0F3512C5F
:102E900073CF522C5818821408F46ECFF8CF842DBB
:102EA000867809F47BCF8BE241FE80E247FC8DE21D
:102EB000B70190E071CFB70180E390E00E947B17EB
:102EC0009A946CCF8FEF9FEF99CFFC0105906150E2
:102ED00070400110D8F7809590958E0F9F1F089530
:102EE000FC016150704001900110D8F780959095D9
:102EF0008E0F9F1F08950F931F93CF93DF93182F6B
:102F0000092FEB018B8181FD09C01FEF0FEF812F8E
:102F1000902FDF91CF911F910F91089582FF14C0E0
:102F20002E813F818C819D81281739073CF4E881EF
:102F3000F981CF0101969983888310838E819F81C7
:102F400001969F838E83E3CFE885F985812F0995CC
:102F5000892BA1F3DACFFA01AA27283051F12031C9
:102F600081F1E8946F936E7F6E5F7F4F8F4F9F4F1D
:102F7000AF4FB1E03ED0B4E03CD0670F781F891F5F
:102F80009A1FA11D680F791F8A1F911DA11D6A0F2D
:102F9000711D811D911DA11D20D009F468943F91E0
:102FA0002AE0269F11243019305D3193DEF6CF01DF
:102FB0000895462F4770405D4193B3E00FD0C9F7A5
:102FC000F6CF462F4F70405D4A3318F0495D31FD12
:102FD0004052419302D0A9F7EACFB4E0A695979565
:102FE000879577956795BA95C9F70097610571053B
:102FF00008959B01AC010A2E069457954795379585
:103000002795BA95C9F7620F731F841F951FA01DDE
:063010000895F894FFCFC3
:10301600E80300003057050050C300008813000085
:1030260005000000FA068000000000000000000015
:103036000000000000000000000000000101010087
:1030460000000025029901C6017202F701D501E9C7
:103056000100000000530426041205FC031F040CA3
:1030660004FD030D0A000A3D3D3D2046494C5445EA
:10307600522054554E494E47204D454E55203D3D14
:103086003D00436F6D6D616E64733A00312D393AC0
:10309600205365742066696C7465722073616D7067
:1030A6006C65732028313D76657279206C6F6F737D
:1030B600652C20393D766572792073747269637464
:1030C6002900612F413A2044656372656173652F5B
:1030D600496E637265617365206D696E20737461F4
:1030E600626C652074696D65202863757272656E01
:1030F600746C7920006D732900622F423A20446572
:103106006372656173652F496E63726561736520CD
:103116006465626F756E63652074696D65202863EA
:10312600757272656E746C792000632F433A204481
:10313600656372656173652F496E63726561736558
:10314600206D696E2070756C73652077696474688C
:10315600202863757272656E746C792000642F4442
:103166003A2044656372656173652F496E637265C3
:10317600617365206D61782070756C736520776961
:10318600647468202863757272656E746C792000A9
:10319600733A2053686F772063757272656E742078
:1031A60073657474696E677300683A2053686F7745
:1031B6002074686973206D656E75003D3D3D3D3D2B
:1031C6003D3D3D3D3D3D3D3D3D3D3D3D3D3D3D3D29
:1031D6003D3D3D3D3D3D3D0A002A2A2A20474152BC
:1031E60041474520444F4F52205245434549564595
:1031F6005220494E495449414C495A4544202A2AAD
:103206002A004C697374656E696E6720666F72205A
:1032160070756C73652073657175656E6365732073
:103226006F6E2070696E200057696C6C2061637444
:1032360069766174652067617261676520646F6F86
:1032460072206F6E2070696E200020616674657250
:1032560020002070756C73657320737061636564FC
:1032660020006D732061706172740046696C74652C
:10327600722073616D706C65732073657420746F52
:103286003A20002028313D6C6F6F73652C20393D44
:1032960073747269637429004D696E207374616278
:1032A6006C652074696D653A20004465626F756EC1
:1032B60063652074696D653A20004D696E207075EE
:1032C6006C73652077696474683A20004D617820D4
:1032D60070756C73652077696474683A20000A3DDE
:1032E6003D3D2043555252454E5420534554544972
:1032F6004E4753203D3D3D0046696C746572207310
:10330600616D706C65733A200050756C736520773B
:1033160069647468206D656173757265643A20002E
:10332600207573202800206D7329207C2056616C3F
:1033360069642072616E67653A20002D00206D7306
:10334600207C200056414C49442050554C53452181
:1033560000494E56414C49442050554C534520286F
:103366006F7574206F662072616E676529002A2A60
:103376002A2047415241474520444F4F5220444559
:10338600414354495641544544202A2A2A0050694B
:103396006E200020736574204C4F570050756C7377
:1033A600652073657175656E6365207265736574F6
:1033B600202D2074696D696E67206F666600566100
:1033C6006C69642070756C73652000206F66200040
:1033D60020696E2073657175656E6365002A2A2AF9
:1033E6002047415241474520444F4F5220414354C4
:1033F60049564154454421202A2A2A0020736574DF
:10340600204849474820666F722000206D7300529D
:103416006573657474696E6720426F756E647300B8
:103426002534642534642534640046696C746572F9
:103436006564204475726174696F6E2C204D696EE7
:103446002C204D61783A20002C20002028537461EE
:0634560074653A2000003D
:00000001FF
